{
  "contractName": "tSWRV",
  "abi": [
    {
      "inputs": [],
      "stateMutability": "nonpayable",
      "type": "constructor"
    },
    {
      "anonymous": false,
      "inputs": [
        {
          "indexed": true,
          "internalType": "address",
          "name": "owner",
          "type": "address"
        },
        {
          "indexed": true,
          "internalType": "address",
          "name": "spender",
          "type": "address"
        },
        {
          "indexed": false,
          "internalType": "uint256",
          "name": "value",
          "type": "uint256"
        }
      ],
      "name": "Approval",
      "type": "event"
    },
    {
      "anonymous": false,
      "inputs": [
        {
          "indexed": false,
          "internalType": "uint256",
          "name": "date",
          "type": "uint256"
        },
        {
          "indexed": false,
          "internalType": "enum tSWRV.TimelockedFunctions",
          "name": "_fn",
          "type": "uint8"
        }
      ],
      "name": "FunctionLocked",
      "type": "event"
    },
    {
      "anonymous": false,
      "inputs": [
        {
          "indexed": false,
          "internalType": "uint256",
          "name": "date",
          "type": "uint256"
        },
        {
          "indexed": false,
          "internalType": "enum tSWRV.TimelockedFunctions",
          "name": "_fn",
          "type": "uint8"
        }
      ],
      "name": "FunctionUnlockStarted",
      "type": "event"
    },
    {
      "anonymous": false,
      "inputs": [
        {
          "indexed": false,
          "internalType": "uint256",
          "name": "date",
          "type": "uint256"
        },
        {
          "indexed": false,
          "internalType": "uint256",
          "name": "_grantID",
          "type": "uint256"
        },
        {
          "indexed": false,
          "internalType": "address",
          "name": "_recipient",
          "type": "address"
        },
        {
          "indexed": false,
          "internalType": "uint256",
          "name": "_amount",
          "type": "uint256"
        },
        {
          "indexed": false,
          "internalType": "uint256",
          "name": "_bonusPercentage",
          "type": "uint256"
        },
        {
          "indexed": false,
          "internalType": "uint256",
          "name": "_redemptionDelay",
          "type": "uint256"
        }
      ],
      "name": "GrantCreated",
      "type": "event"
    },
    {
      "anonymous": false,
      "inputs": [
        {
          "indexed": false,
          "internalType": "uint256",
          "name": "date",
          "type": "uint256"
        },
        {
          "indexed": false,
          "internalType": "address",
          "name": "_previousOwner",
          "type": "address"
        },
        {
          "indexed": false,
          "internalType": "address",
          "name": "_newOwner",
          "type": "address"
        }
      ],
      "name": "OwnershipTransferred",
      "type": "event"
    },
    {
      "anonymous": false,
      "inputs": [
        {
          "indexed": false,
          "internalType": "uint256",
          "name": "date",
          "type": "uint256"
        },
        {
          "indexed": false,
          "internalType": "uint256",
          "name": "_amount",
          "type": "uint256"
        }
      ],
      "name": "PromissoryTokensMinted",
      "type": "event"
    },
    {
      "anonymous": false,
      "inputs": [
        {
          "indexed": false,
          "internalType": "uint256",
          "name": "date",
          "type": "uint256"
        },
        {
          "indexed": false,
          "internalType": "uint256",
          "name": "grantID",
          "type": "uint256"
        },
        {
          "indexed": false,
          "internalType": "address",
          "name": "_beneficiary",
          "type": "address"
        },
        {
          "indexed": false,
          "internalType": "uint256",
          "name": "_amount",
          "type": "uint256"
        },
        {
          "indexed": false,
          "internalType": "uint256",
          "name": "payout",
          "type": "uint256"
        }
      ],
      "name": "PromissoryTokensRedeemed",
      "type": "event"
    },
    {
      "anonymous": false,
      "inputs": [
        {
          "indexed": false,
          "internalType": "uint256",
          "name": "date",
          "type": "uint256"
        },
        {
          "indexed": false,
          "internalType": "address",
          "name": "_previousSubcommittee",
          "type": "address"
        },
        {
          "indexed": false,
          "internalType": "address",
          "name": "_newSubcommittee",
          "type": "address"
        }
      ],
      "name": "SubcommitteeAddressChanged",
      "type": "event"
    },
    {
      "anonymous": false,
      "inputs": [
        {
          "indexed": true,
          "internalType": "address",
          "name": "from",
          "type": "address"
        },
        {
          "indexed": true,
          "internalType": "address",
          "name": "to",
          "type": "address"
        },
        {
          "indexed": false,
          "internalType": "uint256",
          "name": "value",
          "type": "uint256"
        }
      ],
      "name": "Transfer",
      "type": "event"
    },
    {
      "inputs": [],
      "name": "_TIMELOCK",
      "outputs": [
        {
          "internalType": "uint256",
          "name": "",
          "type": "uint256"
        }
      ],
      "stateMutability": "view",
      "type": "function",
      "constant": true
    },
    {
      "inputs": [
        {
          "internalType": "address",
          "name": "owner",
          "type": "address"
        },
        {
          "internalType": "address",
          "name": "spender",
          "type": "address"
        }
      ],
      "name": "allowance",
      "outputs": [
        {
          "internalType": "uint256",
          "name": "",
          "type": "uint256"
        }
      ],
      "stateMutability": "view",
      "type": "function",
      "constant": true
    },
    {
      "inputs": [
        {
          "internalType": "address",
          "name": "spender",
          "type": "address"
        },
        {
          "internalType": "uint256",
          "name": "amount",
          "type": "uint256"
        }
      ],
      "name": "approve",
      "outputs": [
        {
          "internalType": "bool",
          "name": "",
          "type": "bool"
        }
      ],
      "stateMutability": "nonpayable",
      "type": "function"
    },
    {
      "inputs": [
        {
          "internalType": "address",
          "name": "account",
          "type": "address"
        }
      ],
      "name": "balanceOf",
      "outputs": [
        {
          "internalType": "uint256",
          "name": "",
          "type": "uint256"
        }
      ],
      "stateMutability": "view",
      "type": "function",
      "constant": true
    },
    {
      "inputs": [],
      "name": "counter",
      "outputs": [
        {
          "internalType": "uint256",
          "name": "",
          "type": "uint256"
        }
      ],
      "stateMutability": "view",
      "type": "function",
      "constant": true
    },
    {
      "inputs": [],
      "name": "decimals",
      "outputs": [
        {
          "internalType": "uint8",
          "name": "",
          "type": "uint8"
        }
      ],
      "stateMutability": "view",
      "type": "function",
      "constant": true
    },
    {
      "inputs": [
        {
          "internalType": "address",
          "name": "spender",
          "type": "address"
        },
        {
          "internalType": "uint256",
          "name": "subtractedValue",
          "type": "uint256"
        }
      ],
      "name": "decreaseAllowance",
      "outputs": [
        {
          "internalType": "bool",
          "name": "",
          "type": "bool"
        }
      ],
      "stateMutability": "nonpayable",
      "type": "function"
    },
    {
      "inputs": [
        {
          "internalType": "uint256",
          "name": "",
          "type": "uint256"
        }
      ],
      "name": "grants",
      "outputs": [
        {
          "internalType": "address",
          "name": "recipient",
          "type": "address"
        },
        {
          "internalType": "uint256",
          "name": "amount",
          "type": "uint256"
        },
        {
          "internalType": "uint256",
          "name": "bonus",
          "type": "uint256"
        },
        {
          "internalType": "uint256",
          "name": "redemptionDate",
          "type": "uint256"
        }
      ],
      "stateMutability": "view",
      "type": "function",
      "constant": true
    },
    {
      "inputs": [
        {
          "internalType": "address",
          "name": "spender",
          "type": "address"
        },
        {
          "internalType": "uint256",
          "name": "addedValue",
          "type": "uint256"
        }
      ],
      "name": "increaseAllowance",
      "outputs": [
        {
          "internalType": "bool",
          "name": "",
          "type": "bool"
        }
      ],
      "stateMutability": "nonpayable",
      "type": "function"
    },
    {
      "inputs": [],
      "name": "name",
      "outputs": [
        {
          "internalType": "string",
          "name": "",
          "type": "string"
        }
      ],
      "stateMutability": "view",
      "type": "function",
      "constant": true
    },
    {
      "inputs": [],
      "name": "owner",
      "outputs": [
        {
          "internalType": "address",
          "name": "",
          "type": "address"
        }
      ],
      "stateMutability": "view",
      "type": "function",
      "constant": true
    },
    {
      "inputs": [],
      "name": "subcommitteeAddress",
      "outputs": [
        {
          "internalType": "address",
          "name": "",
          "type": "address"
        }
      ],
      "stateMutability": "view",
      "type": "function",
      "constant": true
    },
    {
      "inputs": [],
      "name": "swUSD",
      "outputs": [
        {
          "internalType": "contract IERC20",
          "name": "",
          "type": "address"
        }
      ],
      "stateMutability": "view",
      "type": "function",
      "constant": true
    },
    {
      "inputs": [],
      "name": "symbol",
      "outputs": [
        {
          "internalType": "string",
          "name": "",
          "type": "string"
        }
      ],
      "stateMutability": "view",
      "type": "function",
      "constant": true
    },
    {
      "inputs": [
        {
          "internalType": "enum tSWRV.TimelockedFunctions",
          "name": "",
          "type": "uint8"
        }
      ],
      "name": "timelockTimer",
      "outputs": [
        {
          "internalType": "uint256",
          "name": "",
          "type": "uint256"
        }
      ],
      "stateMutability": "view",
      "type": "function",
      "constant": true
    },
    {
      "inputs": [],
      "name": "totalSupply",
      "outputs": [
        {
          "internalType": "uint256",
          "name": "",
          "type": "uint256"
        }
      ],
      "stateMutability": "view",
      "type": "function",
      "constant": true
    },
    {
      "inputs": [],
      "name": "getTreasuryBalance",
      "outputs": [
        {
          "internalType": "uint256",
          "name": "",
          "type": "uint256"
        }
      ],
      "stateMutability": "view",
      "type": "function",
      "constant": true
    },
    {
      "inputs": [
        {
          "internalType": "enum tSWRV.TimelockedFunctions",
          "name": "_fn",
          "type": "uint8"
        }
      ],
      "name": "unlockFunction",
      "outputs": [],
      "stateMutability": "nonpayable",
      "type": "function"
    },
    {
      "inputs": [
        {
          "internalType": "enum tSWRV.TimelockedFunctions",
          "name": "_fn",
          "type": "uint8"
        }
      ],
      "name": "lockFunction",
      "outputs": [],
      "stateMutability": "nonpayable",
      "type": "function"
    },
    {
      "inputs": [
        {
          "internalType": "address",
          "name": "_subcommitteAddress",
          "type": "address"
        }
      ],
      "name": "setSubcommitteeAddress",
      "outputs": [],
      "stateMutability": "nonpayable",
      "type": "function"
    },
    {
      "inputs": [
        {
          "internalType": "address",
          "name": "_newOwner",
          "type": "address"
        }
      ],
      "name": "transferOwnership",
      "outputs": [],
      "stateMutability": "nonpayable",
      "type": "function"
    },
    {
      "inputs": [
        {
          "internalType": "uint256",
          "name": "_amount",
          "type": "uint256"
        }
      ],
      "name": "mint",
      "outputs": [],
      "stateMutability": "nonpayable",
      "type": "function"
    },
    {
      "inputs": [
        {
          "internalType": "address",
          "name": "_recipient",
          "type": "address"
        },
        {
          "internalType": "uint256",
          "name": "_amount",
          "type": "uint256"
        },
        {
          "internalType": "uint256",
          "name": "_bonusPercentage",
          "type": "uint256"
        },
        {
          "internalType": "uint256",
          "name": "_redemptionDelay",
          "type": "uint256"
        }
      ],
      "name": "createGrant",
      "outputs": [],
      "stateMutability": "nonpayable",
      "type": "function"
    },
    {
      "inputs": [
        {
          "internalType": "address",
          "name": "_recipient",
          "type": "address"
        },
        {
          "internalType": "uint256[]",
          "name": "_amounts",
          "type": "uint256[]"
        },
        {
          "internalType": "uint256[]",
          "name": "_bonusPercentages",
          "type": "uint256[]"
        },
        {
          "internalType": "uint256[]",
          "name": "_redemptionDelays",
          "type": "uint256[]"
        }
      ],
      "name": "createScheduledGrants",
      "outputs": [],
      "stateMutability": "nonpayable",
      "type": "function"
    },
    {
      "inputs": [
        {
          "internalType": "uint256",
          "name": "_grantID",
          "type": "uint256"
        },
        {
          "internalType": "uint256",
          "name": "_amount",
          "type": "uint256"
        }
      ],
      "name": "redeem",
      "outputs": [],
      "stateMutability": "nonpayable",
      "type": "function"
    },
    {
      "inputs": [
        {
          "internalType": "address",
          "name": "_recipient",
          "type": "address"
        },
        {
          "internalType": "uint256",
          "name": "_amount",
          "type": "uint256"
        }
      ],
      "name": "transfer",
      "outputs": [
        {
          "internalType": "bool",
          "name": "",
          "type": "bool"
        }
      ],
      "stateMutability": "nonpayable",
      "type": "function"
    },
    {
      "inputs": [
        {
          "internalType": "address",
          "name": "_sender",
          "type": "address"
        },
        {
          "internalType": "address",
          "name": "_recipient",
          "type": "address"
        },
        {
          "internalType": "uint256",
          "name": "_amount",
          "type": "uint256"
        }
      ],
      "name": "transferFrom",
      "outputs": [
        {
          "internalType": "bool",
          "name": "",
          "type": "bool"
        }
      ],
      "stateMutability": "nonpayable",
      "type": "function"
    }
  ],
  "bytecode": "0x60806040523480156200001157600080fd5b506040518060400160405280602081526020017f5377657276652054726561737572792050726f6d6973736f727920546f6b656e8152506040518060400160405280600581526020017f745357525600000000000000000000000000000000000000000000000000000081525081600390805190602001906200009692919062000247565b508060049080519060200190620000af92919062000247565b506012600560006101000a81548160ff021916908360ff1602179055505050731137952818d5887d9af44995055723967c78b3bb600560016101000a81548173ffffffffffffffffffffffffffffffffffffffff021916908373ffffffffffffffffffffffffffffffffffffffff1602179055506202a3006008819055507377c6e4a580c0dce4e5c7a17d0bc077188a83a059600760006101000a81548173ffffffffffffffffffffffffffffffffffffffff021916908373ffffffffffffffffffffffffffffffffffffffff1602179055506000600b819055507f16b85f49bf01212961345d3016c9a531894accf62eb7680f2045d79185cc0ec0426000620001be6200023f60201b60201c565b604051808481526020018373ffffffffffffffffffffffffffffffffffffffff1673ffffffffffffffffffffffffffffffffffffffff1681526020018273ffffffffffffffffffffffffffffffffffffffff1673ffffffffffffffffffffffffffffffffffffffff168152602001935050505060405180910390a1620002f6565b600033905090565b828054600181600116156101000203166002900490600052602060002090601f016020900481019282601f106200028a57805160ff1916838001178555620002bb565b82800160010185558215620002bb579182015b82811115620002ba5782518255916020019190600101906200029d565b5b509050620002ca9190620002ce565b5090565b620002f391905b80821115620002ef576000816000905550600101620002d5565b5090565b90565b61323680620003066000396000f3fe608060405234801561001057600080fd5b50600436106101a95760003560e01c80638da5cb5b116100f9578063aa53099d11610097578063dd62ed3e11610071578063dd62ed3e14610a4b578063ddf3011c14610ac3578063f142a6da14610b0d578063f2fde38b14610b52576101a9565b8063aa53099d146109a5578063abee4aeb146109d6578063b4fa3b9814610a1a576101a9565b80639b5655dc116100d35780639b5655dc1461088d578063a0712d68146108ab578063a457c2d7146108d9578063a9059cbb1461093f576101a9565b80638da5cb5b146107a257806395d89b41146107ec5780639b138df71461086f576101a9565b8063313ce5671161016657806361bc221a1161014057806361bc221a146106aa57806364d691d6146106c857806370a08231146107125780637cbc23731461076a576101a9565b8063313ce56714610420578063395093511461044457806342e1a702146104aa576101a9565b806306fdde03146101ae578063095ea7b3146102315780630c0debea1461029757806316140b7a1461031a57806318160ddd1461037c57806323b872dd1461039a575b600080fd5b6101b6610b96565b6040518080602001828103825283818151815260200191508051906020019080838360005b838110156101f65780820151818401526020810190506101db565b50505050905090810190601f1680156102235780820380516001836020036101000a031916815260200191505b509250505060405180910390f35b61027d6004803603604081101561024757600080fd5b81019080803573ffffffffffffffffffffffffffffffffffffffff16906020019092919080359060200190929190505050610c38565b604051808215151515815260200191505060405180910390f35b6102c3600480360360208110156102ad57600080fd5b8101908080359060200190929190505050610c56565b604051808573ffffffffffffffffffffffffffffffffffffffff1673ffffffffffffffffffffffffffffffffffffffff16815260200184815260200183815260200182815260200194505050505060405180910390f35b61037a6004803603608081101561033057600080fd5b81019080803573ffffffffffffffffffffffffffffffffffffffff169060200190929190803590602001909291908035906020019092919080359060200190929190505050610ca6565b005b610384610ed5565b6040518082815260200191505060405180910390f35b610406600480360360608110156103b057600080fd5b81019080803573ffffffffffffffffffffffffffffffffffffffff169060200190929190803573ffffffffffffffffffffffffffffffffffffffff16906020019092919080359060200190929190505050610edf565b604051808215151515815260200191505060405180910390f35b610428610ee6565b604051808260ff1660ff16815260200191505060405180910390f35b6104906004803603604081101561045a57600080fd5b81019080803573ffffffffffffffffffffffffffffffffffffffff16906020019092919080359060200190929190505050610efd565b604051808215151515815260200191505060405180910390f35b6106a8600480360360808110156104c057600080fd5b81019080803573ffffffffffffffffffffffffffffffffffffffff169060200190929190803590602001906401000000008111156104fd57600080fd5b82018360208201111561050f57600080fd5b8035906020019184602083028401116401000000008311171561053157600080fd5b919080806020026020016040519081016040528093929190818152602001838360200280828437600081840152601f19601f8201169050808301925050505050505091929192908035906020019064010000000081111561059157600080fd5b8201836020820111156105a357600080fd5b803590602001918460208302840111640100000000831117156105c557600080fd5b919080806020026020016040519081016040528093929190818152602001838360200280828437600081840152601f19601f8201169050808301925050505050505091929192908035906020019064010000000081111561062557600080fd5b82018360208201111561063757600080fd5b8035906020019184602083028401116401000000008311171561065957600080fd5b919080806020026020016040519081016040528093929190818152602001838360200280828437600081840152601f19601f820116905080830192505050505050509192919290505050610fb0565b005b6106b2611179565b6040518082815260200191505060405180910390f35b6106d061117f565b604051808273ffffffffffffffffffffffffffffffffffffffff1673ffffffffffffffffffffffffffffffffffffffff16815260200191505060405180910390f35b6107546004803603602081101561072857600080fd5b81019080803573ffffffffffffffffffffffffffffffffffffffff1690602001909291905050506111a5565b6040518082815260200191505060405180910390f35b6107a06004803603604081101561078057600080fd5b8101908080359060200190929190803590602001909291905050506111ed565b005b6107aa611714565b604051808273ffffffffffffffffffffffffffffffffffffffff1673ffffffffffffffffffffffffffffffffffffffff16815260200191505060405180910390f35b6107f461173a565b6040518080602001828103825283818151815260200191508051906020019080838360005b83811015610834578082015181840152602081019050610819565b50505050905090810190601f1680156108615780820380516001836020036101000a031916815260200191505b509250505060405180910390f35b6108776117dc565b6040518082815260200191505060405180910390f35b6108956117e2565b6040518082815260200191505060405180910390f35b6108d7600480360360208110156108c157600080fd5b81019080803590602001909291905050506118c3565b005b610925600480360360408110156108ef57600080fd5b81019080803573ffffffffffffffffffffffffffffffffffffffff169060200190929190803590602001909291905050506119fb565b604051808215151515815260200191505060405180910390f35b61098b6004803603604081101561095557600080fd5b81019080803573ffffffffffffffffffffffffffffffffffffffff16906020019092919080359060200190929190505050611ac8565b604051808215151515815260200191505060405180910390f35b6109d4600480360360208110156109bb57600080fd5b81019080803560ff169060200190929190505050611acf565b005b610a18600480360360208110156109ec57600080fd5b81019080803573ffffffffffffffffffffffffffffffffffffffff169060200190929190505050611c1b565b005b610a4960048036036020811015610a3057600080fd5b81019080803560ff169060200190929190505050611ef1565b005b610aad60048036036040811015610a6157600080fd5b81019080803573ffffffffffffffffffffffffffffffffffffffff169060200190929190803573ffffffffffffffffffffffffffffffffffffffff16906020019092919050505061203a565b6040518082815260200191505060405180910390f35b610acb6120c1565b604051808273ffffffffffffffffffffffffffffffffffffffff1673ffffffffffffffffffffffffffffffffffffffff16815260200191505060405180910390f35b610b3c60048036036020811015610b2357600080fd5b81019080803560ff1690602001909291905050506120e7565b6040518082815260200191505060405180910390f35b610b9460048036036020811015610b6857600080fd5b81019080803573ffffffffffffffffffffffffffffffffffffffff1690602001909291905050506120ff565b005b606060038054600181600116156101000203166002900480601f016020809104026020016040519081016040528092919081815260200182805460018160011615610100020316600290048015610c2e5780601f10610c0357610100808354040283529160200191610c2e565b820191906000526020600020905b815481529060010190602001808311610c1157829003601f168201915b5050505050905090565b6000610c4c610c4561245a565b8484612462565b6001905092915050565b600a6020528060005260406000206000915090508060000160009054906101000a900473ffffffffffffffffffffffffffffffffffffffff16908060010154908060020154908060030154905084565b600660009054906101000a900473ffffffffffffffffffffffffffffffffffffffff1673ffffffffffffffffffffffffffffffffffffffff16610ce761245a565b73ffffffffffffffffffffffffffffffffffffffff1614610d53576040517f08c379a000000000000000000000000000000000000000000000000000000000815260040180806020018281038252602881526020018061303a6028913960400191505060405180910390fd5b83600a6000600b54815260200190815260200160002060000160006101000a81548173ffffffffffffffffffffffffffffffffffffffff021916908373ffffffffffffffffffffffffffffffffffffffff16021790555082600a6000600b5481526020019081526020016000206001018190555081600a6000600b54815260200190815260200160002060020181905550804201600a6000600b54815260200190815260200160002060030181905550600b60008154809291906001019190505550610e42600660009054906101000a900473ffffffffffffffffffffffffffffffffffffffff168585612659565b7f7fd7bd82dbae2e154b004f3a13ae57e8cb81fc3f1cc11ff764bc5a41cd6bc80842600b5486868686604051808781526020018681526020018573ffffffffffffffffffffffffffffffffffffffff1673ffffffffffffffffffffffffffffffffffffffff168152602001848152602001838152602001828152602001965050505050505060405180910390a150505050565b6000600254905090565b6000806000fd5b6000600560009054906101000a900460ff16905090565b6000610fa6610f0a61245a565b84610fa18560016000610f1b61245a565b73ffffffffffffffffffffffffffffffffffffffff1673ffffffffffffffffffffffffffffffffffffffff16815260200190815260200160002060008973ffffffffffffffffffffffffffffffffffffffff1673ffffffffffffffffffffffffffffffffffffffff1681526020019081526020016000205461291a90919063ffffffff16565b612462565b6001905092915050565b600660009054906101000a900473ffffffffffffffffffffffffffffffffffffffff1673ffffffffffffffffffffffffffffffffffffffff16610ff161245a565b73ffffffffffffffffffffffffffffffffffffffff161461105d576040517f08c379a000000000000000000000000000000000000000000000000000000000815260040180806020018281038252602881526020018061303a6028913960400191505060405180910390fd5b81518351146110b7576040517f08c379a00000000000000000000000000000000000000000000000000000000081526004018080602001828103825260258152602001806130886025913960400191505060405180910390fd5b8151815114611111576040517f08c379a00000000000000000000000000000000000000000000000000000000081526004018080602001828103825260258152602001806130886025913960400191505060405180910390fd5b60008090505b8351811015611172576111658585838151811061113057fe5b602002602001015185848151811061114457fe5b602002602001015185858151811061115857fe5b6020026020010151610ca6565b8080600101915050611117565b5050505050565b600b5481565b600760009054906101000a900473ffffffffffffffffffffffffffffffffffffffff1681565b60008060008373ffffffffffffffffffffffffffffffffffffffff1673ffffffffffffffffffffffffffffffffffffffff168152602001908152602001600020549050919050565b60008111611263576040517f08c379a00000000000000000000000000000000000000000000000000000000081526004018080602001828103825260158152602001807f416d6f756e742063616e6e6f74206265207a65726f000000000000000000000081525060200191505060405180910390fd5b61126b61245a565b73ffffffffffffffffffffffffffffffffffffffff16600a600084815260200190815260200160002060000160009054906101000a900473ffffffffffffffffffffffffffffffffffffffff1673ffffffffffffffffffffffffffffffffffffffff1614611324576040517f08c379a00000000000000000000000000000000000000000000000000000000081526004018080602001828103825260348152602001806130d46034913960400191505060405180910390fd5b8061133561133061245a565b6111a5565b10156113a9576040517f08c379a000000000000000000000000000000000000000000000000000000000815260040180806020018281038252601a8152602001807f496e73756666696369656e742074535752562062616c616e636500000000000081525060200191505060405180910390fd5b42600a6000848152602001908152602001600020600301541115611418576040517f08c379a00000000000000000000000000000000000000000000000000000000081526004018080602001828103825260258152602001806131296025913960400191505060405180910390fd5b61142961142361245a565b826129a2565b61145281600a600085815260200190815260200160002060010154612b6690919063ffffffff16565b600a60008481526020019081526020016000206001018190555060006114aa606461149c600a60008781526020019081526020016000206002015485612bb090919063ffffffff16565b612c3690919063ffffffff16565b905060006114c1828461291a90919063ffffffff16565b9050806114cc6117e2565b1015611523576040517f08c379a00000000000000000000000000000000000000000000000000000000081526004018080602001828103825260278152602001806130ad6027913960400191505060405180910390fd5b600760009054906101000a900473ffffffffffffffffffffffffffffffffffffffff1673ffffffffffffffffffffffffffffffffffffffff1663a9059cbb61156961245a565b836040518363ffffffff1660e01b8152600401808373ffffffffffffffffffffffffffffffffffffffff1673ffffffffffffffffffffffffffffffffffffffff16815260200182815260200192505050602060405180830381600087803b1580156115d357600080fd5b505af11580156115e7573d6000803e3d6000fd5b505050506040513d60208110156115fd57600080fd5b8101908080519060200190929190505050506000600a600086815260200190815260200160002060010154141561168457600a6000858152602001908152602001600020600080820160006101000a81549073ffffffffffffffffffffffffffffffffffffffff021916905560018201600090556002820160009055600382016000905550505b7fba51ac8c8d76d7d2f4b295e0e1f64f5319419732551fddd5a7832a3a049b282242856116af61245a565b8685604051808681526020018581526020018473ffffffffffffffffffffffffffffffffffffffff1673ffffffffffffffffffffffffffffffffffffffff1681526020018381526020018281526020019550505050505060405180910390a150505050565b600560019054906101000a900473ffffffffffffffffffffffffffffffffffffffff1681565b606060048054600181600116156101000203166002900480601f0160208091040260200160405190810160405280929190818152602001828054600181600116156101000203166002900480156117d25780601f106117a7576101008083540402835291602001916117d2565b820191906000526020600020905b8154815290600101906020018083116117b557829003601f168201915b5050505050905090565b60085481565b6000600760009054906101000a900473ffffffffffffffffffffffffffffffffffffffff1673ffffffffffffffffffffffffffffffffffffffff166370a08231306040518263ffffffff1660e01b8152600401808273ffffffffffffffffffffffffffffffffffffffff1673ffffffffffffffffffffffffffffffffffffffff16815260200191505060206040518083038186803b15801561188357600080fd5b505afa158015611897573d6000803e3d6000fd5b505050506040513d60208110156118ad57600080fd5b8101908080519060200190929190505050905090565b6118cb61245a565b73ffffffffffffffffffffffffffffffffffffffff16600560019054906101000a900473ffffffffffffffffffffffffffffffffffffffff1673ffffffffffffffffffffffffffffffffffffffff161461198d576040517f08c379a00000000000000000000000000000000000000000000000000000000081526004018080602001828103825260178152602001807f43616c6c6572206973206e6f7420746865206f776e657200000000000000000081525060200191505060405180910390fd5b6119b9600660009054906101000a900473ffffffffffffffffffffffffffffffffffffffff1682612c80565b7fdcd9702c2815e4f050d6fd7fe06e6039b24102fb7df47b48bbf1b82a49cf34af4282604051808381526020018281526020019250505060405180910390a150565b6000611abe611a0861245a565b84611ab9856040518060600160405280602581526020016131b86025913960016000611a3261245a565b73ffffffffffffffffffffffffffffffffffffffff1673ffffffffffffffffffffffffffffffffffffffff16815260200190815260200160002060008a73ffffffffffffffffffffffffffffffffffffffff1673ffffffffffffffffffffffffffffffffffffffff16815260200190815260200160002054612e479092919063ffffffff16565b612462565b6001905092915050565b6000806000fd5b611ad761245a565b73ffffffffffffffffffffffffffffffffffffffff16600560019054906101000a900473ffffffffffffffffffffffffffffffffffffffff1673ffffffffffffffffffffffffffffffffffffffff1614611b99576040517f08c379a00000000000000000000000000000000000000000000000000000000081526004018080602001828103825260178152602001807f43616c6c6572206973206e6f7420746865206f776e657200000000000000000081525060200191505060405180910390fd5b600854420160096000836001811115611bae57fe5b6001811115611bb957fe5b8152602001908152602001600020819055507fe5ded95255d9660dc9bc11c2714b39875d529583d43f97483f31e2e8e2800542428260405180838152602001826001811115611c0457fe5b60ff1681526020019250505060405180910390a150565b611c2361245a565b73ffffffffffffffffffffffffffffffffffffffff16600560019054906101000a900473ffffffffffffffffffffffffffffffffffffffff1673ffffffffffffffffffffffffffffffffffffffff1614611ce5576040517f08c379a00000000000000000000000000000000000000000000000000000000081526004018080602001828103825260178152602001807f43616c6c6572206973206e6f7420746865206f776e657200000000000000000081525060200191505060405180910390fd5b6001600060096000836001811115611cf957fe5b6001811115611d0457fe5b81526020019081526020016000205414158015611d4a57504260096000836001811115611d2d57fe5b6001811115611d3857fe5b81526020019081526020016000205411155b611dbc576040517f08c379a00000000000000000000000000000000000000000000000000000000081526004018080602001828103825260168152602001807f46756e6374696f6e2069732074696d656c6f636b65640000000000000000000081525060200191505060405180910390fd5b7f111d45d4b602be5e3b873a9b1b13184706598f458745c955763c144d93e9979442600660009054906101000a900473ffffffffffffffffffffffffffffffffffffffff1684604051808481526020018373ffffffffffffffffffffffffffffffffffffffff1673ffffffffffffffffffffffffffffffffffffffff1681526020018273ffffffffffffffffffffffffffffffffffffffff1673ffffffffffffffffffffffffffffffffffffffff168152602001935050505060405180910390a181600660006101000a81548173ffffffffffffffffffffffffffffffffffffffff021916908373ffffffffffffffffffffffffffffffffffffffff160217905550600060096000600180811115611ed057fe5b6001811115611edb57fe5b8152602001908152602001600020819055505050565b611ef961245a565b73ffffffffffffffffffffffffffffffffffffffff16600560019054906101000a900473ffffffffffffffffffffffffffffffffffffffff1673ffffffffffffffffffffffffffffffffffffffff1614611fbb576040517f08c379a00000000000000000000000000000000000000000000000000000000081526004018080602001828103825260178152602001807f43616c6c6572206973206e6f7420746865206f776e657200000000000000000081525060200191505060405180910390fd5b600060096000836001811115611fcd57fe5b6001811115611fd857fe5b8152602001908152602001600020819055507f2a6ae6514b12c8285050b60752d42f1ee49b26141c7a8572317face8c4646bee42826040518083815260200182600181111561202357fe5b60ff1681526020019250505060405180910390a150565b6000600160008473ffffffffffffffffffffffffffffffffffffffff1673ffffffffffffffffffffffffffffffffffffffff16815260200190815260200160002060008373ffffffffffffffffffffffffffffffffffffffff1673ffffffffffffffffffffffffffffffffffffffff16815260200190815260200160002054905092915050565b600660009054906101000a900473ffffffffffffffffffffffffffffffffffffffff1681565b60096020528060005260406000206000915090505481565b61210761245a565b73ffffffffffffffffffffffffffffffffffffffff16600560019054906101000a900473ffffffffffffffffffffffffffffffffffffffff1673ffffffffffffffffffffffffffffffffffffffff16146121c9576040517f08c379a00000000000000000000000000000000000000000000000000000000081526004018080602001828103825260178152602001807f43616c6c6572206973206e6f7420746865206f776e657200000000000000000081525060200191505060405180910390fd5b600080600960008360018111156121dc57fe5b60018111156121e757fe5b8152602001908152602001600020541415801561222d5750426009600083600181111561221057fe5b600181111561221b57fe5b81526020019081526020016000205411155b61229f576040517f08c379a00000000000000000000000000000000000000000000000000000000081526004018080602001828103825260168152602001807f46756e6374696f6e2069732074696d656c6f636b65640000000000000000000081525060200191505060405180910390fd5b600073ffffffffffffffffffffffffffffffffffffffff168273ffffffffffffffffffffffffffffffffffffffff161415612325576040517f08c379a00000000000000000000000000000000000000000000000000000000081526004018080602001828103825260248152602001806131dd6024913960400191505060405180910390fd5b81600560016101000a81548173ffffffffffffffffffffffffffffffffffffffff021916908373ffffffffffffffffffffffffffffffffffffffff16021790555060006009600080600181111561237857fe5b600181111561238357fe5b8152602001908152602001600020819055507f16b85f49bf01212961345d3016c9a531894accf62eb7680f2045d79185cc0ec042600560019054906101000a900473ffffffffffffffffffffffffffffffffffffffff1684604051808481526020018373ffffffffffffffffffffffffffffffffffffffff1673ffffffffffffffffffffffffffffffffffffffff1681526020018273ffffffffffffffffffffffffffffffffffffffff1673ffffffffffffffffffffffffffffffffffffffff168152602001935050505060405180910390a15050565b600033905090565b600073ffffffffffffffffffffffffffffffffffffffff168373ffffffffffffffffffffffffffffffffffffffff1614156124e8576040517f08c379a00000000000000000000000000000000000000000000000000000000081526004018080602001828103825260248152602001806131946024913960400191505060405180910390fd5b600073ffffffffffffffffffffffffffffffffffffffff168273ffffffffffffffffffffffffffffffffffffffff16141561256e576040517f08c379a00000000000000000000000000000000000000000000000000000000081526004018080602001828103825260228152602001806130186022913960400191505060405180910390fd5b80600160008573ffffffffffffffffffffffffffffffffffffffff1673ffffffffffffffffffffffffffffffffffffffff16815260200190815260200160002060008473ffffffffffffffffffffffffffffffffffffffff1673ffffffffffffffffffffffffffffffffffffffff168152602001908152602001600020819055508173ffffffffffffffffffffffffffffffffffffffff168373ffffffffffffffffffffffffffffffffffffffff167f8c5be1e5ebec7d5bd14f71427d1e84f3dd0314c0f7b2291e5b200ac8c7c3b925836040518082815260200191505060405180910390a3505050565b600073ffffffffffffffffffffffffffffffffffffffff168373ffffffffffffffffffffffffffffffffffffffff1614156126df576040517f08c379a000000000000000000000000000000000000000000000000000000000815260040180806020018281038252602581526020018061316f6025913960400191505060405180910390fd5b600073ffffffffffffffffffffffffffffffffffffffff168273ffffffffffffffffffffffffffffffffffffffff161415612765576040517f08c379a0000000000000000000000000000000000000000000000000000000008152600401808060200182810382526023815260200180612fd36023913960400191505060405180910390fd5b612770838383612f07565b6127db81604051806060016040528060268152602001613062602691396000808773ffffffffffffffffffffffffffffffffffffffff1673ffffffffffffffffffffffffffffffffffffffff16815260200190815260200160002054612e479092919063ffffffff16565b6000808573ffffffffffffffffffffffffffffffffffffffff1673ffffffffffffffffffffffffffffffffffffffff1681526020019081526020016000208190555061286e816000808573ffffffffffffffffffffffffffffffffffffffff1673ffffffffffffffffffffffffffffffffffffffff1681526020019081526020016000205461291a90919063ffffffff16565b6000808473ffffffffffffffffffffffffffffffffffffffff1673ffffffffffffffffffffffffffffffffffffffff168152602001908152602001600020819055508173ffffffffffffffffffffffffffffffffffffffff168373ffffffffffffffffffffffffffffffffffffffff167fddf252ad1be2c89b69c2b068fc378daa952ba7f163c4a11628f55a4df523b3ef836040518082815260200191505060405180910390a3505050565b600080828401905083811015612998576040517f08c379a000000000000000000000000000000000000000000000000000000000815260040180806020018281038252601b8152602001807f536166654d6174683a206164646974696f6e206f766572666c6f77000000000081525060200191505060405180910390fd5b8091505092915050565b600073ffffffffffffffffffffffffffffffffffffffff168273ffffffffffffffffffffffffffffffffffffffff161415612a28576040517f08c379a000000000000000000000000000000000000000000000000000000000815260040180806020018281038252602181526020018061314e6021913960400191505060405180910390fd5b612a3482600083612f07565b612a9f81604051806060016040528060228152602001612ff6602291396000808673ffffffffffffffffffffffffffffffffffffffff1673ffffffffffffffffffffffffffffffffffffffff16815260200190815260200160002054612e479092919063ffffffff16565b6000808473ffffffffffffffffffffffffffffffffffffffff1673ffffffffffffffffffffffffffffffffffffffff16815260200190815260200160002081905550612af681600254612b6690919063ffffffff16565b600281905550600073ffffffffffffffffffffffffffffffffffffffff168273ffffffffffffffffffffffffffffffffffffffff167fddf252ad1be2c89b69c2b068fc378daa952ba7f163c4a11628f55a4df523b3ef836040518082815260200191505060405180910390a35050565b6000612ba883836040518060400160405280601e81526020017f536166654d6174683a207375627472616374696f6e206f766572666c6f770000815250612e47565b905092915050565b600080831415612bc35760009050612c30565b6000828402905082848281612bd457fe5b0414612c2b576040517f08c379a00000000000000000000000000000000000000000000000000000000081526004018080602001828103825260218152602001806131086021913960400191505060405180910390fd5b809150505b92915050565b6000612c7883836040518060400160405280601a81526020017f536166654d6174683a206469766973696f6e206279207a65726f000000000000815250612f0c565b905092915050565b600073ffffffffffffffffffffffffffffffffffffffff168273ffffffffffffffffffffffffffffffffffffffff161415612d23576040517f08c379a000000000000000000000000000000000000000000000000000000000815260040180806020018281038252601f8152602001807f45524332303a206d696e7420746f20746865207a65726f20616464726573730081525060200191505060405180910390fd5b612d2f60008383612f07565b612d448160025461291a90919063ffffffff16565b600281905550612d9b816000808573ffffffffffffffffffffffffffffffffffffffff1673ffffffffffffffffffffffffffffffffffffffff1681526020019081526020016000205461291a90919063ffffffff16565b6000808473ffffffffffffffffffffffffffffffffffffffff1673ffffffffffffffffffffffffffffffffffffffff168152602001908152602001600020819055508173ffffffffffffffffffffffffffffffffffffffff16600073ffffffffffffffffffffffffffffffffffffffff167fddf252ad1be2c89b69c2b068fc378daa952ba7f163c4a11628f55a4df523b3ef836040518082815260200191505060405180910390a35050565b6000838311158290612ef4576040517f08c379a00000000000000000000000000000000000000000000000000000000081526004018080602001828103825283818151815260200191508051906020019080838360005b83811015612eb9578082015181840152602081019050612e9e565b50505050905090810190601f168015612ee65780820380516001836020036101000a031916815260200191505b509250505060405180910390fd5b5060008385039050809150509392505050565b505050565b60008083118290612fb8576040517f08c379a00000000000000000000000000000000000000000000000000000000081526004018080602001828103825283818151815260200191508051906020019080838360005b83811015612f7d578082015181840152602081019050612f62565b50505050905090810190601f168015612faa5780820380516001836020036101000a031916815260200191505b509250505060405180910390fd5b506000838581612fc457fe5b04905080915050939250505056fe45524332303a207472616e7366657220746f20746865207a65726f206164647265737345524332303a206275726e20616d6f756e7420657863656564732062616c616e636545524332303a20617070726f766520746f20746865207a65726f20616464726573734f6e6c792074686520737562636f6d6d69747465652063616e206372656174652061206772616e7445524332303a207472616e7366657220616d6f756e7420657863656564732062616c616e6365416c6c20617272617973206d757374206265206f66207468652073616d65206c656e677468496e73756666696369656e74207377555344202062616c616e636520696e2074726561737572794f6e6c7920746865206772616e7420726563697069656e742063616e2072656465656d2069747320745357525620746f6b656e73536166654d6174683a206d756c7469706c69636174696f6e206f766572666c6f774772616e74206973206e6f74207965742072656465656d61626c6520666f7220737755534445524332303a206275726e2066726f6d20746865207a65726f206164647265737345524332303a207472616e736665722066726f6d20746865207a65726f206164647265737345524332303a20617070726f76652066726f6d20746865207a65726f206164647265737345524332303a2064656372656173656420616c6c6f77616e63652062656c6f77207a65726f4e6577206f776e65722063616e6e6f7420626520746865207a65726f2061646472657373a2646970667358221220da050c06c4b0c68a660d0709844d3db9a602ce2fc1a7b4b73490ff7349b9f77764736f6c634300060a0033",
  "immutableReferences": {},
  "source": "pragma solidity 0.6.10;\r\n\r\nimport \"@openzeppelin/contracts/token/ERC20/IERC20.sol\";\r\nimport \"@openzeppelin/contracts/token/ERC20/ERC20.sol\";\r\nimport \"@openzeppelin/contracts/math/SafeMath.sol\";\r\n\r\n/**\r\n * @dev Implementation of the SIP-12 : \"tSWRV - Treasury Promissory Tokens\".\r\n *\r\n * This implementation uses the ERC-20 standard but limits the minting function by making it callable\r\n * only by the contract owner, and with the subcommittee as the only recipient.\r\n * The token transfer functionality is restricted to the subcommittee only as part of\r\n * a grant creation.\r\n * Non-committee tokenholders can only use their tokens in order to redeem them for\r\n * swUSD tokens according to grant parameters.\r\n * These limitations require making standard \"transfer\" and \"transferFrom\" functions\r\n * unusable by overriding them.\r\n *\r\n * Normal flow of operations :\r\n * - contract is deployed\r\n * - ownership is transferred to multisig treasury\r\n * - multisig treasury nominates the subcommittee address\r\n * - multisig treasury funds the contract with swUSD and mints tSWRV tokens\r\n * - subcommittee creates grants as per decisions of the community\r\n * - grant recipients redeem tSWRV tokens for swUSD\r\n *\r\n * Grants are created with a unique ID and can be tailored according to four parameters :\r\n * recipient (address), amount of tSWRV tokens (uint256), swUSD redemption bonus percentage (uint256),\r\n * redemption delay after grant creation in seconds (uint256).\r\n * Once a grant's amount has been fully redeemed, its data is deleted to save on storage space.\r\n *\r\n * The contract owner address and the subcommittee address can be changed,\r\n * but these functions are under a 48-hour timelock tracked by the event\r\n * FunctionUnlockStarted, whose first output is the date of starting the unlock\r\n * process, while the second output indicates which function is being unlocked\r\n * (0 for transferOwnership, 1 for setSubcommitteeAddress).\r\n * The timelock follows the model described in : https://medium.com/cryptexglobal/how-to-create-time-locked-functions-523424def80\r\n *\r\n * Written and tested by Fairly Rare Pepe\r\n *\r\n */\r\n\r\ncontract tSWRV is ERC20 {\r\n    using SafeMath for uint256;\r\n\r\n    // storage variables\r\n\r\n    address public owner;\r\n    address public subcommitteeAddress;\r\n    IERC20 public swUSD;\r\n    uint256 public _TIMELOCK;\r\n    mapping(TimelockedFunctions => uint256) public timelockTimer;\r\n    mapping(uint256 => Grant) public grants;\r\n    enum TimelockedFunctions {CHGOWNERSHIP, SETSUBCOM}\r\n    struct Grant {\r\n        address recipient;\r\n        uint256 amount;\r\n        uint256 bonus;\r\n        uint256 redemptionDate;\r\n    }\r\n    uint256 public counter;\r\n\r\n    // modifiers\r\n\r\n    /**\r\n     * @dev Throws if called by any account other than the owner.\r\n     */\r\n\r\n    modifier onlyOwner() {\r\n        require(owner == _msgSender(), \"Caller is not the owner\");\r\n        _;\r\n    }\r\n\r\n    /**\r\n     * @dev Throws if function is called when the unlocking procedure hasn't started or\r\n     * when the timelock is not yet expired.\r\n     * @param _fn refers to the TimelockedFunctions enum, whereby 0 points to the\r\n     * transferOwnership function while 1 points to the setSubcommitteeAddress\r\n     * function.\r\n     */\r\n\r\n    modifier notLocked(TimelockedFunctions _fn) {\r\n        require(\r\n            timelockTimer[_fn] != 0 && timelockTimer[_fn] <= block.timestamp,\r\n            \"Function is timelocked\"\r\n        );\r\n        _;\r\n    }\r\n\r\n    // events\r\n\r\n    event PromissoryTokensMinted(uint256 date, uint256 _amount);\r\n    event GrantCreated(\r\n        uint256 date,\r\n        uint256 _grantID,\r\n        address _recipient,\r\n        uint256 _amount,\r\n        uint256 _bonusPercentage,\r\n        uint256 _redemptionDelay\r\n    );\r\n    event PromissoryTokensRedeemed(\r\n        uint256 date,\r\n        uint256 grantID,\r\n        address _beneficiary,\r\n        uint256 _amount,\r\n        uint256 payout\r\n    );\r\n    event OwnershipTransferred(\r\n        uint256 date,\r\n        address _previousOwner,\r\n        address _newOwner\r\n    );\r\n    event SubcommitteeAddressChanged(\r\n        uint256 date,\r\n        address _previousSubcommittee,\r\n        address _newSubcommittee\r\n    );\r\n    event FunctionUnlockStarted(uint256 date, TimelockedFunctions _fn);\r\n    event FunctionLocked(uint256 date, TimelockedFunctions _fn);\r\n\r\n    /**\r\n     * @dev Sets the values for {_TIMELOCK} with\r\n     * a default value of 2 days, initializes the counter used for\r\n     * grantIDs as 0 and swUSD as the only payment token for grants.\r\n     *\r\n     * {_TIMELOCK} and the swUSD address values are immutable: they can only be set once during\r\n     * construction.\r\n     *\r\n     * The value for {owner} is set to the deploying address, but can be later changed\r\n     * with the transferOwnership function.\r\n     */\r\n\r\n    // constructor\r\n\r\n    constructor() public ERC20(\"Swerve Treasury Promissory Token\", \"tSWRV\") {\r\n        owner = 0x1137952818D5887d9af44995055723967C78B3bb;\r\n        _TIMELOCK = 2 days;\r\n        swUSD = IERC20(0x77C6E4a580c0dCE4E5c7a17d0bc077188a83A059); // current swUSD address as per https://swerve.fi/contracts/\r\n        counter = 0;\r\n        emit OwnershipTransferred(now, address(0), _msgSender());\r\n    }\r\n\r\n    // getter functions\r\n\r\n    /**\r\n     * @dev Returns the contract's swUSD balance.\r\n     */\r\n\r\n    function getTreasuryBalance() public view returns (uint256) {\r\n        return swUSD.balanceOf(address(this));\r\n    }\r\n\r\n    // owner functions\r\n\r\n    /**\r\n     * @dev Starts the unlocking procedure for a timelocked function. Can only\r\n     * be called by contract owner.\r\n     * @param _fn refers to the TimelockedFunctions enum, whereby 0 points to the\r\n     * transferOwnership function while 1 points to the setSubcommitteeAddress\r\n     * function.\r\n     *\r\n     * Emits a {FunctionUnlockStarted} event that can be tracked to monitor the\r\n     * unlocking of critical functions.\r\n     */\r\n\r\n    function unlockFunction(TimelockedFunctions _fn) public onlyOwner {\r\n        timelockTimer[_fn] = block.timestamp + _TIMELOCK;\r\n        emit FunctionUnlockStarted(now, _fn);\r\n    }\r\n\r\n    /**\r\n     * @dev Cancels the unlocking procedure for a timelocked function after it\r\n     * has been started by the contract owner. Can only be called by contract owner.\r\n     * @param _fn refers to the TimelockedFunctions enum, whereby 0 points to the\r\n     * transferOwnership function while 1 points to the setSubcommitteeAddress\r\n     * function.\r\n     *\r\n     * Emits a {FunctionLocked} event that can be tracked to confirm that the\r\n     * unlocking of a critical functions has been cancelled.\r\n     */\r\n\r\n    function lockFunction(TimelockedFunctions _fn) public onlyOwner {\r\n        timelockTimer[_fn] = 0;\r\n        emit FunctionLocked(now, _fn);\r\n    }\r\n\r\n    /**\r\n     * @dev Sets the {_subcommitteAddress} in charge of creating grants. Can only be\r\n     * called by contract owner and is under a timelock.\r\n     * @param _subcommitteAddress refers to the address of the new subcommittee.\r\n     *\r\n     * Emits a {SubcommitteeAddressChanged} event displaying the time of change, the\r\n     * previous subcommittee address and the new subcommittee address.\r\n     */\r\n\r\n    function setSubcommitteeAddress(address _subcommitteAddress)\r\n        public\r\n        onlyOwner\r\n        notLocked(TimelockedFunctions.SETSUBCOM)\r\n    {\r\n        emit SubcommitteeAddressChanged(\r\n            now,\r\n            subcommitteeAddress,\r\n            _subcommitteAddress\r\n        );\r\n        subcommitteeAddress = _subcommitteAddress;\r\n        timelockTimer[TimelockedFunctions.SETSUBCOM] = 0;\r\n    }\r\n\r\n    /**\r\n     * @dev Sets the {owner} in charge of minting tSWRV tokens and nominating the\r\n     * subcommittee address. Can only be called by contract owner and is under a timelock.\r\n     * @param _newOwner  refers to the address of the new contract owner.\r\n     *\r\n     * Emits a {OwnershipTransferred} event displaying the time of change, the\r\n     * previous owner address and the new owner address.\r\n     */\r\n\r\n    function transferOwnership(address _newOwner)\r\n        public\r\n        onlyOwner\r\n        notLocked(TimelockedFunctions.CHGOWNERSHIP)\r\n    {\r\n        require(\r\n            _newOwner != address(0),\r\n            \"New owner cannot be the zero address\"\r\n        );\r\n        owner = _newOwner;\r\n        timelockTimer[TimelockedFunctions.CHGOWNERSHIP] = 0;\r\n        emit OwnershipTransferred(now, owner, _newOwner);\r\n    }\r\n\r\n    /**\r\n     * @dev Mints the indicated {_amount} of tSWRV tokens in favor of the subcommittee address.\r\n     * Can only be called by contract owner and is under a timelock.\r\n     * @param _amount refers to amount of new tSWRV tokens to mint, taking into account the 18\r\n     * decimals default parameter of the token.\r\n     *\r\n     * Emits a {PromissoryTokensMinted} event displaying the time of minting and the\r\n     * amount of minted tokens.\r\n     */\r\n\r\n    function mint(uint256 _amount) public onlyOwner {\r\n        _mint(subcommitteeAddress, _amount);\r\n        emit PromissoryTokensMinted(now, _amount);\r\n    }\r\n\r\n    // public functions\r\n\r\n    /**\r\n     * @dev Creates a new {Grant} struct inside the {grants} mapping with a unique grantID pointing to a grant recipient's address,\r\n     * the tSWRV amount to be transferred, the bonus percentage at redemption and the redemption delay.\r\n     * The function can only be called by the subcommittee address.\r\n     * The function uses the current value of the {counter} variable to assign a unique grantID to the grant, then populates the\r\n     * {Grant} struct with the given parameters.\r\n     * The {counter} variable is then incremented for the next grant and the tSWRV amount is transferred from the subcommittee address's balance\r\n     * to the grant recipient address's balance.\r\n     *\r\n     * @param _recipient refers to the address of the grant recipient. THIS ADDRESS MUST BE CAPABLE OF CALLING THE redeem FUNCTION,\r\n     * otherwise the tSWRV tokens cannot be redeemed and the grant recipient cannot be compensated from the contract's swUSD funds.\r\n     * @param _amount refers to amount of tSWRV tokens held by the subcommittee to be transferred to the grant recipient, taking into\r\n     * account the 18 decimals default parameter of the token.\r\n     * @param _bonusPercentage refers to the percentage (5 --> 5%) added to the base swUSD value of the grant at the time of redeeming\r\n     * tSWRV tokens for swUSD, e.g. a 1000 tSWRV grant with a 5% bonus percentage will be redeemable for 1050 swUSD.\r\n     * @param _redemptionDelay refers to the time in seconds after the creation of the grant that will need to pass before the grant\r\n     * recipient can redeem his tSWRV tokens for swUSD.\r\n     *\r\n     * Emits a {GrantCreated} event displaying the time of minting, the grant ID, the grant recipient,\r\n     * the amount of transferred tokens, the chosen bonus percentage and the redemption delay of the grant.\r\n     */\r\n\r\n    function createGrant(\r\n        address _recipient,\r\n        uint256 _amount,\r\n        uint256 _bonusPercentage,\r\n        uint256 _redemptionDelay\r\n    ) public {\r\n        require(\r\n            _msgSender() == subcommitteeAddress,\r\n            \"Only the subcommittee can create a grant\"\r\n        );\r\n        grants[counter].recipient = _recipient;\r\n        grants[counter].amount = _amount;\r\n        grants[counter].bonus = _bonusPercentage;\r\n        grants[counter].redemptionDate = block.timestamp + _redemptionDelay;\r\n        counter++;\r\n        _transfer(subcommitteeAddress, _recipient, _amount);\r\n\r\n        emit GrantCreated(\r\n            block.timestamp,\r\n            counter,\r\n            _recipient,\r\n            _amount,\r\n            _bonusPercentage,\r\n            _redemptionDelay\r\n        );\r\n    }\r\n\r\n    /**\r\n     * @dev Creates several new {Grant} structs inside the {grants} mapping with unique grantIDs pointing to a single grant recipient's address,\r\n     * the tSWRV amounts to be transferred, the bonus percentages at redemption and the redemption delays. This convenience function makes it\r\n     * easier to create a series of grants for recurring payments to a grant recipient, such as a team employee.\r\n     * The function can only be called by the subcommittee address.\r\n     * All input arrays must be of the same length or the function will revert. The function loops over the alength of the rrays and calls the createGrant\r\n     * function incrementally for each of the array indexes.\r\n     *\r\n     * @param _recipient refers to the address of the grant recipient. THIS ADDRESS MUST BE CAPABLE OF CALLING THE redeem FUNCTION,\r\n     * otherwise the tSWRV tokens cannot be redeemed and the grant recipient cannot be compensated from the contract's swUSD funds.\r\n     * @param _amounts refers to an array of amounts of tSWRV tokens held by the subcommittee to be transferred to the grant recipient, taking into\r\n     * account the 18 decimals default parameter of the token.\r\n     * @param _bonusPercentages refers to an array of percentages (5 --> 5%) added to the base swUSD value of the grant at the time of redeeming\r\n     * tSWRV tokens for swUSD, e.g. a 1000 tSWRV grant with a 5% bonus percentage will be redeemable for 1050 swUSD.\r\n     * @param _redemptionDelays refers to an array of times in seconds after the creation of the grant that will need to pass before the grant\r\n     * recipient can redeem his tSWRV tokens for swUSD.\r\n     *\r\n     *\r\n     * Emits a {GrantCreated} event displaying the time of minting, the grant ID, the grant recipient,\r\n     * the amount of transferred tokens, the chosen bonus percentage and the redemption delay of the grant.\r\n     */\r\n\r\n    function createScheduledGrants(\r\n        address _recipient,\r\n        uint256[] memory _amounts,\r\n        uint256[] memory _bonusPercentages,\r\n        uint256[] memory _redemptionDelays\r\n    ) public {\r\n        require(\r\n            _msgSender() == subcommitteeAddress,\r\n            \"Only the subcommittee can create a grant\"\r\n        );\r\n        require(\r\n            _amounts.length == _bonusPercentages.length,\r\n            \"All arrays must be of the same length\"\r\n        );\r\n        require(\r\n            _redemptionDelays.length == _bonusPercentages.length,\r\n            \"All arrays must be of the same length\"\r\n        );\r\n\r\n        for (uint256 i = 0; i < _amounts.length; i++) {\r\n            createGrant(\r\n                _recipient,\r\n                _amounts[i],\r\n                _bonusPercentages[i],\r\n                _redemptionDelays[i]\r\n            );\r\n        }\r\n    }\r\n\r\n    /**\r\n     * @dev Redeems the indicated {_amount} of tSWRV tokens from the grants identified by\r\n     * the {_grantID}. Cannot be called with a null amount, can only be called by the grant recipient\r\n     * as per the {grants} mapping. Checks for sufficient tSWRV balance and that the redemption delays\r\n     * has passed.\r\n     * The function burns the redeemed tSWRV tokens and updates the {grants} mapping. Then the bonus amount\r\n     * is calculated and added to the baseline 1 tSWRV = 1 swUSD baseline.\r\n     * The contract's swUSD is checked then swUSD is transferred to the grant recipient.\r\n     * Finally if the grant amount has been fully redeemed, the relevant Grant struct is deleted in the\r\n     * {grants} mapping to save on storage space.\r\n     *\r\n     * @param _grantID refers to the unique number assigned to the grant at creation time as a consequence of the value\r\n     * of the {counter} variable at that time.\r\n     * @param _amount refers to amount of held tSWRV tokens to redeem, taking into account the 18\r\n     * decimals default parameter of the token.\r\n     *\r\n     * Emits a {PromissoryTokensRedeemed} event displaying the time of minting, the grant ID, the grant recipient,\r\n     * the amount of redeemed tokens, and the total swUSD payout sent to the recipient.\r\n     */\r\n\r\n    function redeem(uint256 _grantID, uint256 _amount) public {\r\n        require(_amount > 0, \"Amount cannot be zero\");\r\n        require(\r\n            grants[_grantID].recipient == _msgSender(),\r\n            \"Only the grant recipient can redeem its tSWRV tokens\"\r\n        );\r\n        require(\r\n            balanceOf(_msgSender()) >= _amount,\r\n            \"Insufficient tSWRV balance\"\r\n        );\r\n        require(\r\n            grants[_grantID].redemptionDate <= block.timestamp,\r\n            \"Grant is not yet redeemable for swUSD\"\r\n        );\r\n        _burn(_msgSender(), _amount);\r\n        grants[_grantID].amount = grants[_grantID].amount.sub(_amount);\r\n\r\n        uint256 bonus = _amount.mul(grants[_grantID].bonus).div(100);\r\n        uint256 payout = _amount.add(bonus);\r\n\r\n        require(\r\n            getTreasuryBalance() >= payout,\r\n            \"Insufficient swUSD  balance in treasury\"\r\n        );\r\n        swUSD.transfer(_msgSender(), payout);\r\n\r\n        if (grants[_grantID].amount == 0) {\r\n            delete grants[_grantID];\r\n        }\r\n\r\n        emit PromissoryTokensRedeemed(\r\n            now,\r\n            _grantID,\r\n            _msgSender(),\r\n            _amount,\r\n            payout\r\n        );\r\n    }\r\n\r\n    // deactivated functions from ERC-20 standard\r\n\r\n    /**\r\n     * @dev  Standard ERC-20 public functions are deactivated in order to respect implementation specifications\r\n     * mentioned above. These functions are made unusable by changing the function body, they can still\r\n     * be called but the transaction will automatically revert.\r\n     *\r\n     * Note : other standard ERC-20 public functions such as approve, decreaseAllowance, increaseAllowance are not\r\n     * explicitly deactivated but are rendered useless by the deactivation of transfer and transferFrom.\r\n     */\r\n\r\n    function transfer(address _recipient, uint256 _amount)\r\n        public\r\n        override\r\n        returns (bool)\r\n    {\r\n        revert();\r\n    }\r\n\r\n    function transferFrom(\r\n        address _sender,\r\n        address _recipient,\r\n        uint256 _amount\r\n    ) public override returns (bool) {\r\n        revert();\r\n    }\r\n}\r\n",
  "sourcePath": "/home/damas/swerve/tSWRV/contracts/tSWRV.sol",
  "compiler": {
    "name": "solc",
    "version": "0.6.10+commit.00c0fcaf.Emscripten.clang"
  },
  "schemaVersion": "3.2.5",
  "updatedAt": "2020-10-17T20:21:50.571Z",
  "networkType": "ethereum",
  "devdoc": {
    "details": "Implementation of the SIP-12 : \"tSWRV - Treasury Promissory Tokens\". This implementation uses the ERC-20 standard but limits the minting function by making it callable only by the contract owner, and with the subcommittee as the only recipient. The token transfer functionality is restricted to the subcommittee only as part of a grant creation. Non-committee tokenholders can only use their tokens in order to redeem them for swUSD tokens according to grant parameters. These limitations require making standard \"transfer\" and \"transferFrom\" functions unusable by overriding them. Normal flow of operations : - contract is deployed - ownership is transferred to multisig treasury - multisig treasury nominates the subcommittee address - multisig treasury funds the contract with swUSD and mints tSWRV tokens - subcommittee creates grants as per decisions of the community - grant recipients redeem tSWRV tokens for swUSD Grants are created with a unique ID and can be tailored according to four parameters : recipient (address), amount of tSWRV tokens (uint256), swUSD redemption bonus percentage (uint256), redemption delay after grant creation in seconds (uint256). Once a grant's amount has been fully redeemed, its data is deleted to save on storage space. The contract owner address and the subcommittee address can be changed, but these functions are under a 48-hour timelock tracked by the event FunctionUnlockStarted, whose first output is the date of starting the unlock process, while the second output indicates which function is being unlocked (0 for transferOwnership, 1 for setSubcommitteeAddress). The timelock follows the model described in : https://medium.com/cryptexglobal/how-to-create-time-locked-functions-523424def80 Written and tested by Fairly Rare Pepe",
    "methods": {
      "allowance(address,address)": {
        "details": "See {IERC20-allowance}."
      },
      "approve(address,uint256)": {
        "details": "See {IERC20-approve}. Requirements: - `spender` cannot be the zero address."
      },
      "balanceOf(address)": {
        "details": "See {IERC20-balanceOf}."
      },
      "constructor": {
        "details": "Sets the values for {_TIMELOCK} with a default value of 2 days, initializes the counter used for grantIDs as 0 and swUSD as the only payment token for grants. {_TIMELOCK} and the swUSD address values are immutable: they can only be set once during construction. The value for {owner} is set to the deploying address, but can be later changed with the transferOwnership function."
      },
      "createGrant(address,uint256,uint256,uint256)": {
        "details": "Creates a new {Grant} struct inside the {grants} mapping with a unique grantID pointing to a grant recipient's address, the tSWRV amount to be transferred, the bonus percentage at redemption and the redemption delay. The function can only be called by the subcommittee address. The function uses the current value of the {counter} variable to assign a unique grantID to the grant, then populates the {Grant} struct with the given parameters. The {counter} variable is then incremented for the next grant and the tSWRV amount is transferred from the subcommittee address's balance to the grant recipient address's balance.",
        "params": {
          "_amount": "refers to amount of tSWRV tokens held by the subcommittee to be transferred to the grant recipient, taking into account the 18 decimals default parameter of the token.",
          "_bonusPercentage": "refers to the percentage (5 --> 5%) added to the base swUSD value of the grant at the time of redeeming tSWRV tokens for swUSD, e.g. a 1000 tSWRV grant with a 5% bonus percentage will be redeemable for 1050 swUSD.",
          "_recipient": "refers to the address of the grant recipient. THIS ADDRESS MUST BE CAPABLE OF CALLING THE redeem FUNCTION, otherwise the tSWRV tokens cannot be redeemed and the grant recipient cannot be compensated from the contract's swUSD funds.",
          "_redemptionDelay": "refers to the time in seconds after the creation of the grant that will need to pass before the grant recipient can redeem his tSWRV tokens for swUSD. Emits a {GrantCreated} event displaying the time of minting, the grant ID, the grant recipient, the amount of transferred tokens, the chosen bonus percentage and the redemption delay of the grant."
        }
      },
      "createScheduledGrants(address,uint256[],uint256[],uint256[])": {
        "details": "Creates several new {Grant} structs inside the {grants} mapping with unique grantIDs pointing to a single grant recipient's address, the tSWRV amounts to be transferred, the bonus percentages at redemption and the redemption delays. This convenience function makes it easier to create a series of grants for recurring payments to a grant recipient, such as a team employee. The function can only be called by the subcommittee address. All input arrays must be of the same length or the function will revert. The function loops over the alength of the rrays and calls the createGrant function incrementally for each of the array indexes.",
        "params": {
          "_amounts": "refers to an array of amounts of tSWRV tokens held by the subcommittee to be transferred to the grant recipient, taking into account the 18 decimals default parameter of the token.",
          "_bonusPercentages": "refers to an array of percentages (5 --> 5%) added to the base swUSD value of the grant at the time of redeeming tSWRV tokens for swUSD, e.g. a 1000 tSWRV grant with a 5% bonus percentage will be redeemable for 1050 swUSD.",
          "_recipient": "refers to the address of the grant recipient. THIS ADDRESS MUST BE CAPABLE OF CALLING THE redeem FUNCTION, otherwise the tSWRV tokens cannot be redeemed and the grant recipient cannot be compensated from the contract's swUSD funds.",
          "_redemptionDelays": "refers to an array of times in seconds after the creation of the grant that will need to pass before the grant recipient can redeem his tSWRV tokens for swUSD. Emits a {GrantCreated} event displaying the time of minting, the grant ID, the grant recipient, the amount of transferred tokens, the chosen bonus percentage and the redemption delay of the grant."
        }
      },
      "decimals()": {
        "details": "Returns the number of decimals used to get its user representation. For example, if `decimals` equals `2`, a balance of `505` tokens should be displayed to a user as `5,05` (`505 / 10 ** 2`). Tokens usually opt for a value of 18, imitating the relationship between Ether and Wei. This is the value {ERC20} uses, unless {_setupDecimals} is called. NOTE: This information is only used for _display_ purposes: it in no way affects any of the arithmetic of the contract, including {IERC20-balanceOf} and {IERC20-transfer}."
      },
      "decreaseAllowance(address,uint256)": {
        "details": "Atomically decreases the allowance granted to `spender` by the caller. This is an alternative to {approve} that can be used as a mitigation for problems described in {IERC20-approve}. Emits an {Approval} event indicating the updated allowance. Requirements: - `spender` cannot be the zero address. - `spender` must have allowance for the caller of at least `subtractedValue`."
      },
      "getTreasuryBalance()": {
        "details": "Returns the contract's swUSD balance."
      },
      "increaseAllowance(address,uint256)": {
        "details": "Atomically increases the allowance granted to `spender` by the caller. This is an alternative to {approve} that can be used as a mitigation for problems described in {IERC20-approve}. Emits an {Approval} event indicating the updated allowance. Requirements: - `spender` cannot be the zero address."
      },
      "lockFunction(uint8)": {
        "details": "Cancels the unlocking procedure for a timelocked function after it has been started by the contract owner. Can only be called by contract owner.",
        "params": {
          "_fn": "refers to the TimelockedFunctions enum, whereby 0 points to the transferOwnership function while 1 points to the setSubcommitteeAddress function. Emits a {FunctionLocked} event that can be tracked to confirm that the unlocking of a critical functions has been cancelled."
        }
      },
      "mint(uint256)": {
        "details": "Mints the indicated {_amount} of tSWRV tokens in favor of the subcommittee address. Can only be called by contract owner and is under a timelock.",
        "params": {
          "_amount": "refers to amount of new tSWRV tokens to mint, taking into account the 18 decimals default parameter of the token. Emits a {PromissoryTokensMinted} event displaying the time of minting and the amount of minted tokens."
        }
      },
      "name()": {
        "details": "Returns the name of the token."
      },
      "redeem(uint256,uint256)": {
        "details": "Redeems the indicated {_amount} of tSWRV tokens from the grants identified by the {_grantID}. Cannot be called with a null amount, can only be called by the grant recipient as per the {grants} mapping. Checks for sufficient tSWRV balance and that the redemption delays has passed. The function burns the redeemed tSWRV tokens and updates the {grants} mapping. Then the bonus amount is calculated and added to the baseline 1 tSWRV = 1 swUSD baseline. The contract's swUSD is checked then swUSD is transferred to the grant recipient. Finally if the grant amount has been fully redeemed, the relevant Grant struct is deleted in the {grants} mapping to save on storage space.",
        "params": {
          "_amount": "refers to amount of held tSWRV tokens to redeem, taking into account the 18 decimals default parameter of the token. Emits a {PromissoryTokensRedeemed} event displaying the time of minting, the grant ID, the grant recipient, the amount of redeemed tokens, and the total swUSD payout sent to the recipient.",
          "_grantID": "refers to the unique number assigned to the grant at creation time as a consequence of the value of the {counter} variable at that time."
        }
      },
      "setSubcommitteeAddress(address)": {
        "details": "Sets the {_subcommitteAddress} in charge of creating grants. Can only be called by contract owner and is under a timelock.",
        "params": {
          "_subcommitteAddress": "refers to the address of the new subcommittee. Emits a {SubcommitteeAddressChanged} event displaying the time of change, the previous subcommittee address and the new subcommittee address."
        }
      },
      "symbol()": {
        "details": "Returns the symbol of the token, usually a shorter version of the name."
      },
      "totalSupply()": {
        "details": "See {IERC20-totalSupply}."
      },
      "transfer(address,uint256)": {
        "details": "Standard ERC-20 public functions are deactivated in order to respect implementation specifications mentioned above. These functions are made unusable by changing the function body, they can still be called but the transaction will automatically revert. Note : other standard ERC-20 public functions such as approve, decreaseAllowance, increaseAllowance are not explicitly deactivated but are rendered useless by the deactivation of transfer and transferFrom."
      },
      "transferOwnership(address)": {
        "details": "Sets the {owner} in charge of minting tSWRV tokens and nominating the subcommittee address. Can only be called by contract owner and is under a timelock.",
        "params": {
          "_newOwner": "refers to the address of the new contract owner. Emits a {OwnershipTransferred} event displaying the time of change, the previous owner address and the new owner address."
        }
      },
      "unlockFunction(uint8)": {
        "details": "Starts the unlocking procedure for a timelocked function. Can only be called by contract owner.",
        "params": {
          "_fn": "refers to the TimelockedFunctions enum, whereby 0 points to the transferOwnership function while 1 points to the setSubcommitteeAddress function. Emits a {FunctionUnlockStarted} event that can be tracked to monitor the unlocking of critical functions."
        }
      }
    }
  },
  "userdoc": {
    "methods": {}
  }
}